{
  "txid": "654c6a28f7ff1915d2b9abc2e18e32a37e0196203d64aced6221651f003f5e94",
  "version": 2,
  "vin": [
    {
      "txid": "f77c92a9b8b4ab6515b4f674e8ceb93281fcf42ece10a5405626aad9827e53fa",
      "sequence": 4294967293,
      "n": 0,
      "addresses": [
        "bc1p8l0xktmerqgwgrq6l6cejzc3dhph5z8cv6ae083cuvcjhpnten7s2wjswr"
      ],
      "isAddress": true,
      "value": "2240"
    }
  ],
  "vout": [
    {
      "value": "546",
      "n": 0,
      "spent": true,
      "spentTxId": "a676626827915a894bd2d56d4511ba2114817bfebf87d555f98211839f1c21c0",
      "spentIndex": 4,
      "spentHeight": 873029,
      "hex": "51201c28a2c875668b7fee34e45f496973b6b23b6a65854f3fc47d73d02a56c55bbf",
      "addresses": [
        "bc1prs529jr4v69hlm35u305j6tnk6erk6n9s48nl3raw0gz54k9twls6pvnee"
      ],
      "isAddress": true
    }
  ],
  "blockHash": "00000000000000000001c1117af6eda21827639576295c94d60612bce4a0dd8a",
  "blockHeight": 873006,
  "confirmations": 69076,
  "blockTime": 1733199947,
  "size": 334,
  "vsize": 154,
  "value": "546",
  "valueIn": "2240",
  "fees": "1694",
  "hex": "02000000000101fa537e82d9aa265640a510ce2ef4fc8132b9cee874f6b41565abb4b8a9927cf70000000000fdffffff0122020000000000002251201c28a2c875668b7fee34e45f496973b6b23b6a65854f3fc47d73d02a56c55bbf0340086046eceffdcba6776a3ca6ee390ab4431c0334647f58b66178f11d89a6aa9288b3fe9d431289785f4dab7e4623f4b2ed2705ffeb29b2f4b3cca72f71af45d78920943946d20832ac45f9b60c7983101e7de68c71b9996e09328552a8e0598f8bdfac0063036f7264010118746578742f706c61696e3b636861727365743d7574662d3800437b2270223a226272632d3230222c226f70223a227472616e73666572222c227469636b223a22f09d9b91222c22616d74223a22333235363636363636362e383838227d6821c1943946d20832ac45f9b60c7983101e7de68c71b9996e09328552a8e0598f8bdf00000000"
}
